{
  "_format": "hh-sol-artifact-1",
  "contractName": "IronBadgerNFT2",
  "sourceName": "contracts/IronNft2.sol",
  "abi": [
    {
      "inputs": [
        {
          "internalType": "address",
          "name": "initialOwner",
          "type": "address"
        }
      ],
      "stateMutability": "nonpayable",
      "type": "constructor"
    },
    {
      "inputs": [
        {
          "internalType": "address",
          "name": "sender",
          "type": "address"
        },
        {
          "internalType": "uint256",
          "name": "tokenId",
          "type": "uint256"
        },
        {
          "internalType": "address",
          "name": "owner",
          "type": "address"
        }
      ],
      "name": "ERC721IncorrectOwner",
      "type": "error"
    },
    {
      "inputs": [
        {
          "internalType": "address",
          "name": "operator",
          "type": "address"
        },
        {
          "internalType": "uint256",
          "name": "tokenId",
          "type": "uint256"
        }
      ],
      "name": "ERC721InsufficientApproval",
      "type": "error"
    },
    {
      "inputs": [
        {
          "internalType": "address",
          "name": "approver",
          "type": "address"
        }
      ],
      "name": "ERC721InvalidApprover",
      "type": "error"
    },
    {
      "inputs": [
        {
          "internalType": "address",
          "name": "operator",
          "type": "address"
        }
      ],
      "name": "ERC721InvalidOperator",
      "type": "error"
    },
    {
      "inputs": [
        {
          "internalType": "address",
          "name": "owner",
          "type": "address"
        }
      ],
      "name": "ERC721InvalidOwner",
      "type": "error"
    },
    {
      "inputs": [
        {
          "internalType": "address",
          "name": "receiver",
          "type": "address"
        }
      ],
      "name": "ERC721InvalidReceiver",
      "type": "error"
    },
    {
      "inputs": [
        {
          "internalType": "address",
          "name": "sender",
          "type": "address"
        }
      ],
      "name": "ERC721InvalidSender",
      "type": "error"
    },
    {
      "inputs": [
        {
          "internalType": "uint256",
          "name": "tokenId",
          "type": "uint256"
        }
      ],
      "name": "ERC721NonexistentToken",
      "type": "error"
    },
    {
      "inputs": [],
      "name": "EnforcedPause",
      "type": "error"
    },
    {
      "inputs": [],
      "name": "ExpectedPause",
      "type": "error"
    },
    {
      "inputs": [
        {
          "internalType": "address",
          "name": "owner",
          "type": "address"
        }
      ],
      "name": "OwnableInvalidOwner",
      "type": "error"
    },
    {
      "inputs": [
        {
          "internalType": "address",
          "name": "account",
          "type": "address"
        }
      ],
      "name": "OwnableUnauthorizedAccount",
      "type": "error"
    },
    {
      "inputs": [],
      "name": "ReentrancyGuardReentrantCall",
      "type": "error"
    },
    {
      "anonymous": false,
      "inputs": [
        {
          "indexed": true,
          "internalType": "address",
          "name": "owner",
          "type": "address"
        },
        {
          "indexed": true,
          "internalType": "address",
          "name": "approved",
          "type": "address"
        },
        {
          "indexed": true,
          "internalType": "uint256",
          "name": "tokenId",
          "type": "uint256"
        }
      ],
      "name": "Approval",
      "type": "event"
    },
    {
      "anonymous": false,
      "inputs": [
        {
          "indexed": true,
          "internalType": "address",
          "name": "owner",
          "type": "address"
        },
        {
          "indexed": true,
          "internalType": "address",
          "name": "operator",
          "type": "address"
        },
        {
          "indexed": false,
          "internalType": "bool",
          "name": "approved",
          "type": "bool"
        }
      ],
      "name": "ApprovalForAll",
      "type": "event"
    },
    {
      "anonymous": false,
      "inputs": [
        {
          "indexed": false,
          "internalType": "uint256",
          "name": "_fromTokenId",
          "type": "uint256"
        },
        {
          "indexed": false,
          "internalType": "uint256",
          "name": "_toTokenId",
          "type": "uint256"
        }
      ],
      "name": "BatchMetadataUpdate",
      "type": "event"
    },
    {
      "anonymous": false,
      "inputs": [
        {
          "indexed": true,
          "internalType": "uint256",
          "name": "_idNft",
          "type": "uint256"
        },
        {
          "indexed": false,
          "internalType": "uint256",
          "name": "_hp",
          "type": "uint256"
        },
        {
          "indexed": false,
          "internalType": "uint256",
          "name": "_stamina",
          "type": "uint256"
        },
        {
          "indexed": false,
          "internalType": "uint256",
          "name": "_mana",
          "type": "uint256"
        },
        {
          "indexed": false,
          "internalType": "uint256",
          "name": "_strength",
          "type": "uint256"
        },
        {
          "indexed": false,
          "internalType": "uint256",
          "name": "_defense",
          "type": "uint256"
        },
        {
          "indexed": false,
          "internalType": "uint256",
          "name": "_dexterity",
          "type": "uint256"
        },
        {
          "indexed": false,
          "internalType": "uint256",
          "name": "_intelligence",
          "type": "uint256"
        }
      ],
      "name": "ChangeStat",
      "type": "event"
    },
    {
      "anonymous": false,
      "inputs": [
        {
          "indexed": true,
          "internalType": "uint256",
          "name": "tokenId",
          "type": "uint256"
        },
        {
          "indexed": true,
          "internalType": "uint256",
          "name": "itemId",
          "type": "uint256"
        },
        {
          "indexed": false,
          "internalType": "uint8",
          "name": "code",
          "type": "uint8"
        }
      ],
      "name": "ItemDeposited",
      "type": "event"
    },
    {
      "anonymous": false,
      "inputs": [
        {
          "indexed": false,
          "internalType": "uint256",
          "name": "tokenId",
          "type": "uint256"
        },
        {
          "indexed": false,
          "internalType": "uint16",
          "name": "newLevel",
          "type": "uint16"
        }
      ],
      "name": "LevelUp",
      "type": "event"
    },
    {
      "anonymous": false,
      "inputs": [
        {
          "indexed": false,
          "internalType": "uint256",
          "name": "_tokenId",
          "type": "uint256"
        }
      ],
      "name": "MetadataUpdate",
      "type": "event"
    },
    {
      "anonymous": false,
      "inputs": [
        {
          "indexed": true,
          "internalType": "address",
          "name": "to",
          "type": "address"
        },
        {
          "indexed": true,
          "internalType": "uint256",
          "name": "tokenId",
          "type": "uint256"
        },
        {
          "indexed": false,
          "internalType": "string",
          "name": "uri",
          "type": "string"
        },
        {
          "indexed": false,
          "internalType": "enum IronNftStorage.ElementSlots",
          "name": "element",
          "type": "uint8"
        }
      ],
      "name": "Minted",
      "type": "event"
    },
    {
      "anonymous": false,
      "inputs": [
        {
          "indexed": true,
          "internalType": "address",
          "name": "previousOwner",
          "type": "address"
        },
        {
          "indexed": true,
          "internalType": "address",
          "name": "newOwner",
          "type": "address"
        }
      ],
      "name": "OwnershipTransferred",
      "type": "event"
    },
    {
      "anonymous": false,
      "inputs": [
        {
          "indexed": false,
          "internalType": "address",
          "name": "account",
          "type": "address"
        }
      ],
      "name": "Paused",
      "type": "event"
    },
    {
      "anonymous": false,
      "inputs": [
        {
          "indexed": false,
          "internalType": "uint256",
          "name": "tokenId",
          "type": "uint256"
        },
        {
          "indexed": false,
          "internalType": "uint256",
          "name": "newRank",
          "type": "uint256"
        }
      ],
      "name": "RankUp",
      "type": "event"
    },
    {
      "anonymous": false,
      "inputs": [
        {
          "indexed": true,
          "internalType": "uint256",
          "name": "tokenId",
          "type": "uint256"
        },
        {
          "indexed": false,
          "internalType": "uint32",
          "name": "exp",
          "type": "uint32"
        },
        {
          "indexed": false,
          "internalType": "uint16",
          "name": "points",
          "type": "uint16"
        }
      ],
      "name": "RewardBattle",
      "type": "event"
    },
    {
      "anonymous": false,
      "inputs": [
        {
          "indexed": true,
          "internalType": "uint256",
          "name": "tokenId",
          "type": "uint256"
        },
        {
          "indexed": true,
          "internalType": "uint256",
          "name": "skillId",
          "type": "uint256"
        },
        {
          "indexed": false,
          "internalType": "uint8",
          "name": "code",
          "type": "uint8"
        }
      ],
      "name": "SkillDeposited",
      "type": "event"
    },
    {
      "anonymous": false,
      "inputs": [
        {
          "indexed": true,
          "internalType": "address",
          "name": "from",
          "type": "address"
        },
        {
          "indexed": true,
          "internalType": "address",
          "name": "to",
          "type": "address"
        },
        {
          "indexed": true,
          "internalType": "uint256",
          "name": "tokenId",
          "type": "uint256"
        }
      ],
      "name": "Transfer",
      "type": "event"
    },
    {
      "anonymous": false,
      "inputs": [
        {
          "indexed": false,
          "internalType": "address",
          "name": "account",
          "type": "address"
        }
      ],
      "name": "Unpaused",
      "type": "event"
    },
    {
      "anonymous": false,
      "inputs": [
        {
          "indexed": true,
          "internalType": "address",
          "name": "_user",
          "type": "address"
        },
        {
          "indexed": true,
          "internalType": "uint256",
          "name": "item",
          "type": "uint256"
        }
      ],
      "name": "WithdrawItem",
      "type": "event"
    },
    {
      "anonymous": false,
      "inputs": [
        {
          "indexed": true,
          "internalType": "address",
          "name": "_user",
          "type": "address"
        },
        {
          "indexed": true,
          "internalType": "uint256",
          "name": "item",
          "type": "uint256"
        }
      ],
      "name": "WithdrawSkil",
      "type": "event"
    },
    {
      "inputs": [
        {
          "internalType": "address",
          "name": "to",
          "type": "address"
        },
        {
          "internalType": "uint256",
          "name": "tokenId",
          "type": "uint256"
        }
      ],
      "name": "approve",
      "outputs": [],
      "stateMutability": "nonpayable",
      "type": "function"
    },
    {
      "inputs": [
        {
          "internalType": "address",
          "name": "owner",
          "type": "address"
        }
      ],
      "name": "balanceOf",
      "outputs": [
        {
          "internalType": "uint256",
          "name": "",
          "type": "uint256"
        }
      ],
      "stateMutability": "view",
      "type": "function"
    },
    {
      "inputs": [
        {
          "internalType": "uint8",
          "name": "_code_item",
          "type": "uint8"
        },
        {
          "internalType": "uint256",
          "name": "_nftId",
          "type": "uint256"
        },
        {
          "internalType": "uint256",
          "name": "_itemId",
          "type": "uint256"
        }
      ],
      "name": "depositItem",
      "outputs": [],
      "stateMutability": "nonpayable",
      "type": "function"
    },
    {
      "inputs": [
        {
          "internalType": "uint8",
          "name": "_code_item",
          "type": "uint8"
        },
        {
          "internalType": "uint256",
          "name": "_nftId",
          "type": "uint256"
        },
        {
          "internalType": "uint256",
          "name": "_skilId",
          "type": "uint256"
        }
      ],
      "name": "depositSkil",
      "outputs": [],
      "stateMutability": "nonpayable",
      "type": "function"
    },
    {
      "inputs": [
        {
          "internalType": "uint8",
          "name": "_code_item",
          "type": "uint8"
        },
        {
          "internalType": "uint256",
          "name": "_nftId",
          "type": "uint256"
        }
      ],
      "name": "dropItem",
      "outputs": [],
      "stateMutability": "nonpayable",
      "type": "function"
    },
    {
      "inputs": [
        {
          "internalType": "uint8",
          "name": "_code_item",
          "type": "uint8"
        },
        {
          "internalType": "uint256",
          "name": "_nftId",
          "type": "uint256"
        },
        {
          "internalType": "uint256",
          "name": "_itemId",
          "type": "uint256"
        }
      ],
      "name": "dropSkil",
      "outputs": [],
      "stateMutability": "nonpayable",
      "type": "function"
    },
    {
      "inputs": [
        {
          "internalType": "uint256",
          "name": "tokenId",
          "type": "uint256"
        }
      ],
      "name": "getApproved",
      "outputs": [
        {
          "internalType": "address",
          "name": "",
          "type": "address"
        }
      ],
      "stateMutability": "view",
      "type": "function"
    },
    {
      "inputs": [
        {
          "internalType": "address",
          "name": "owner",
          "type": "address"
        },
        {
          "internalType": "address",
          "name": "operator",
          "type": "address"
        }
      ],
      "name": "isApprovedForAll",
      "outputs": [
        {
          "internalType": "bool",
          "name": "",
          "type": "bool"
        }
      ],
      "stateMutability": "view",
      "type": "function"
    },
    {
      "inputs": [
        {
          "internalType": "uint256",
          "name": "tokenId",
          "type": "uint256"
        }
      ],
      "name": "levelUp",
      "outputs": [],
      "stateMutability": "nonpayable",
      "type": "function"
    },
    {
      "inputs": [],
      "name": "name",
      "outputs": [
        {
          "internalType": "string",
          "name": "",
          "type": "string"
        }
      ],
      "stateMutability": "view",
      "type": "function"
    },
    {
      "inputs": [
        {
          "internalType": "address",
          "name": "operator",
          "type": "address"
        },
        {
          "internalType": "address",
          "name": "from",
          "type": "address"
        },
        {
          "internalType": "uint256",
          "name": "tokenId",
          "type": "uint256"
        },
        {
          "internalType": "bytes",
          "name": "data",
          "type": "bytes"
        }
      ],
      "name": "onERC721Received",
      "outputs": [
        {
          "internalType": "bytes4",
          "name": "",
          "type": "bytes4"
        }
      ],
      "stateMutability": "nonpayable",
      "type": "function"
    },
    {
      "inputs": [],
      "name": "owner",
      "outputs": [
        {
          "internalType": "address",
          "name": "",
          "type": "address"
        }
      ],
      "stateMutability": "view",
      "type": "function"
    },
    {
      "inputs": [
        {
          "internalType": "uint256",
          "name": "tokenId",
          "type": "uint256"
        }
      ],
      "name": "ownerOf",
      "outputs": [
        {
          "internalType": "address",
          "name": "",
          "type": "address"
        }
      ],
      "stateMutability": "view",
      "type": "function"
    },
    {
      "inputs": [],
      "name": "pause",
      "outputs": [],
      "stateMutability": "nonpayable",
      "type": "function"
    },
    {
      "inputs": [],
      "name": "paused",
      "outputs": [
        {
          "internalType": "bool",
          "name": "",
          "type": "bool"
        }
      ],
      "stateMutability": "view",
      "type": "function"
    },
    {
      "inputs": [
        {
          "internalType": "uint256",
          "name": "tokenId",
          "type": "uint256"
        }
      ],
      "name": "rankUp",
      "outputs": [],
      "stateMutability": "nonpayable",
      "type": "function"
    },
    {
      "inputs": [
        {
          "internalType": "uint256",
          "name": "tokenId",
          "type": "uint256"
        }
      ],
      "name": "rankUpPlus",
      "outputs": [],
      "stateMutability": "nonpayable",
      "type": "function"
    },
    {
      "inputs": [],
      "name": "renounceOwnership",
      "outputs": [],
      "stateMutability": "nonpayable",
      "type": "function"
    },
    {
      "inputs": [
        {
          "internalType": "uint16",
          "name": "currentLevel",
          "type": "uint16"
        }
      ],
      "name": "requiredExp",
      "outputs": [
        {
          "internalType": "uint32",
          "name": "",
          "type": "uint32"
        }
      ],
      "stateMutability": "pure",
      "type": "function"
    },
    {
      "inputs": [
        {
          "internalType": "uint256",
          "name": "_itemId",
          "type": "uint256"
        },
        {
          "internalType": "address",
          "name": "_addr",
          "type": "address"
        }
      ],
      "name": "returnShowCode",
      "outputs": [
        {
          "internalType": "uint8",
          "name": "",
          "type": "uint8"
        }
      ],
      "stateMutability": "nonpayable",
      "type": "function"
    },
    {
      "inputs": [
        {
          "internalType": "uint256",
          "name": "_itemId",
          "type": "uint256"
        },
        {
          "internalType": "address",
          "name": "_addr",
          "type": "address"
        }
      ],
      "name": "returnShowItemStats",
      "outputs": [
        {
          "components": [
            {
              "components": [
                {
                  "internalType": "uint32",
                  "name": "exp",
                  "type": "uint32"
                },
                {
                  "internalType": "uint16",
                  "name": "hp",
                  "type": "uint16"
                },
                {
                  "internalType": "uint16",
                  "name": "stamina",
                  "type": "uint16"
                },
                {
                  "internalType": "uint16",
                  "name": "mana",
                  "type": "uint16"
                },
                {
                  "internalType": "uint16",
                  "name": "strength",
                  "type": "uint16"
                },
                {
                  "internalType": "uint16",
                  "name": "defense",
                  "type": "uint16"
                },
                {
                  "internalType": "uint16",
                  "name": "dexterity",
                  "type": "uint16"
                },
                {
                  "internalType": "uint16",
                  "name": "intelligence",
                  "type": "uint16"
                },
                {
                  "internalType": "uint16",
                  "name": "PointStats",
                  "type": "uint16"
                }
              ],
              "internalType": "struct IronNftStorage.Statistics",
              "name": "statistic",
              "type": "tuple"
            },
            {
              "components": [
                {
                  "internalType": "uint8",
                  "name": "lvl",
                  "type": "uint8"
                },
                {
                  "internalType": "uint16",
                  "name": "durability",
                  "type": "uint16"
                }
              ],
              "internalType": "struct IronBadgerNFT2.ItemPoint",
              "name": "itemPoint",
              "type": "tuple"
            }
          ],
          "internalType": "struct IronBadgerNFT2.Item",
          "name": "",
          "type": "tuple"
        }
      ],
      "stateMutability": "nonpayable",
      "type": "function"
    },
    {
      "inputs": [
        {
          "internalType": "uint256",
          "name": "_nftId",
          "type": "uint256"
        },
        {
          "internalType": "uint32",
          "name": "_exp",
          "type": "uint32"
        },
        {
          "internalType": "uint16",
          "name": "_pointStat",
          "type": "uint16"
        }
      ],
      "name": "rewardBattle",
      "outputs": [],
      "stateMutability": "nonpayable",
      "type": "function"
    },
    {
      "inputs": [
        {
          "internalType": "address",
          "name": "to",
          "type": "address"
        },
        {
          "internalType": "string",
          "name": "uri",
          "type": "string"
        },
        {
          "internalType": "enum IronNftStorage.ElementSlots",
          "name": "_element",
          "type": "uint8"
        }
      ],
      "name": "safeMint",
      "outputs": [],
      "stateMutability": "nonpayable",
      "type": "function"
    },
    {
      "inputs": [
        {
          "internalType": "address",
          "name": "from",
          "type": "address"
        },
        {
          "internalType": "address",
          "name": "to",
          "type": "address"
        },
        {
          "internalType": "uint256",
          "name": "tokenId",
          "type": "uint256"
        }
      ],
      "name": "safeTransferFrom",
      "outputs": [],
      "stateMutability": "nonpayable",
      "type": "function"
    },
    {
      "inputs": [
        {
          "internalType": "address",
          "name": "from",
          "type": "address"
        },
        {
          "internalType": "address",
          "name": "to",
          "type": "address"
        },
        {
          "internalType": "uint256",
          "name": "tokenId",
          "type": "uint256"
        },
        {
          "internalType": "bytes",
          "name": "data",
          "type": "bytes"
        }
      ],
      "name": "safeTransferFrom",
      "outputs": [],
      "stateMutability": "nonpayable",
      "type": "function"
    },
    {
      "inputs": [
        {
          "internalType": "address",
          "name": "operator",
          "type": "address"
        },
        {
          "internalType": "bool",
          "name": "approved",
          "type": "bool"
        }
      ],
      "name": "setApprovalForAll",
      "outputs": [],
      "stateMutability": "nonpayable",
      "type": "function"
    },
    {
      "inputs": [
        {
          "internalType": "address",
          "name": "_contract",
          "type": "address"
        },
        {
          "internalType": "bool",
          "name": "_pass",
          "type": "bool"
        }
      ],
      "name": "setBattleContract",
      "outputs": [],
      "stateMutability": "nonpayable",
      "type": "function"
    },
    {
      "inputs": [
        {
          "internalType": "address",
          "name": "_contractMinter",
          "type": "address"
        },
        {
          "internalType": "address",
          "name": "_itemContract",
          "type": "address"
        },
        {
          "internalType": "address",
          "name": "_skilContract",
          "type": "address"
        },
        {
          "internalType": "address",
          "name": "_titleContract",
          "type": "address"
        }
      ],
      "name": "setContract",
      "outputs": [],
      "stateMutability": "nonpayable",
      "type": "function"
    },
    {
      "inputs": [
        {
          "internalType": "uint256",
          "name": "_idNft",
          "type": "uint256"
        },
        {
          "internalType": "uint16",
          "name": "_hp",
          "type": "uint16"
        },
        {
          "internalType": "uint16",
          "name": "_stamina",
          "type": "uint16"
        },
        {
          "internalType": "uint16",
          "name": "_mana",
          "type": "uint16"
        },
        {
          "internalType": "uint16",
          "name": "_strength",
          "type": "uint16"
        },
        {
          "internalType": "uint16",
          "name": "_defense",
          "type": "uint16"
        },
        {
          "internalType": "uint16",
          "name": "_dexterity",
          "type": "uint16"
        },
        {
          "internalType": "uint16",
          "name": "_intelligence",
          "type": "uint16"
        }
      ],
      "name": "setStats",
      "outputs": [],
      "stateMutability": "nonpayable",
      "type": "function"
    },
    {
      "inputs": [
        {
          "internalType": "uint256",
          "name": "_nftId",
          "type": "uint256"
        }
      ],
      "name": "showChar",
      "outputs": [
        {
          "components": [
            {
              "internalType": "uint8",
              "name": "level",
              "type": "uint8"
            },
            {
              "internalType": "enum IronNftStorage.Rank",
              "name": "rank",
              "type": "uint8"
            },
            {
              "internalType": "enum IronNftStorage.ElementSlots",
              "name": "element",
              "type": "uint8"
            },
            {
              "components": [
                {
                  "internalType": "uint32",
                  "name": "exp",
                  "type": "uint32"
                },
                {
                  "internalType": "uint16",
                  "name": "hp",
                  "type": "uint16"
                },
                {
                  "internalType": "uint16",
                  "name": "stamina",
                  "type": "uint16"
                },
                {
                  "internalType": "uint16",
                  "name": "mana",
                  "type": "uint16"
                },
                {
                  "internalType": "uint16",
                  "name": "strength",
                  "type": "uint16"
                },
                {
                  "internalType": "uint16",
                  "name": "defense",
                  "type": "uint16"
                },
                {
                  "internalType": "uint16",
                  "name": "dexterity",
                  "type": "uint16"
                },
                {
                  "internalType": "uint16",
                  "name": "intelligence",
                  "type": "uint16"
                },
                {
                  "internalType": "uint16",
                  "name": "PointStats",
                  "type": "uint16"
                }
              ],
              "internalType": "struct IronNftStorage.Statistics",
              "name": "statistics",
              "type": "tuple"
            },
            {
              "components": [
                {
                  "internalType": "uint256",
                  "name": "helmet",
                  "type": "uint256"
                },
                {
                  "internalType": "uint256",
                  "name": "armor",
                  "type": "uint256"
                },
                {
                  "internalType": "uint256",
                  "name": "bracelets",
                  "type": "uint256"
                },
                {
                  "internalType": "uint256",
                  "name": "greaves",
                  "type": "uint256"
                },
                {
                  "internalType": "uint256",
                  "name": "boots",
                  "type": "uint256"
                },
                {
                  "internalType": "uint256",
                  "name": "primaryWeapon",
                  "type": "uint256"
                },
                {
                  "internalType": "uint256",
                  "name": "secondaryWeapon",
                  "type": "uint256"
                }
              ],
              "internalType": "struct IronNftStorage.EquipmentSlots",
              "name": "equipmentSlots",
              "type": "tuple"
            },
            {
              "components": [
                {
                  "internalType": "uint256",
                  "name": "title",
                  "type": "uint256"
                },
                {
                  "internalType": "uint256",
                  "name": "attackSkill1",
                  "type": "uint256"
                },
                {
                  "internalType": "uint256",
                  "name": "defSkill1",
                  "type": "uint256"
                }
              ],
              "internalType": "struct IronNftStorage.SkillSlots",
              "name": "skills",
              "type": "tuple"
            }
          ],
          "internalType": "struct IronNftStorage.Character",
          "name": "",
          "type": "tuple"
        }
      ],
      "stateMutability": "view",
      "type": "function"
    },
    {
      "inputs": [
        {
          "internalType": "bytes4",
          "name": "interfaceId",
          "type": "bytes4"
        }
      ],
      "name": "supportsInterface",
      "outputs": [
        {
          "internalType": "bool",
          "name": "",
          "type": "bool"
        }
      ],
      "stateMutability": "view",
      "type": "function"
    },
    {
      "inputs": [],
      "name": "symbol",
      "outputs": [
        {
          "internalType": "string",
          "name": "",
          "type": "string"
        }
      ],
      "stateMutability": "view",
      "type": "function"
    },
    {
      "inputs": [
        {
          "internalType": "uint256",
          "name": "tokenId",
          "type": "uint256"
        }
      ],
      "name": "tokenURI",
      "outputs": [
        {
          "internalType": "string",
          "name": "",
          "type": "string"
        }
      ],
      "stateMutability": "view",
      "type": "function"
    },
    {
      "inputs": [
        {
          "internalType": "address",
          "name": "from",
          "type": "address"
        },
        {
          "internalType": "address",
          "name": "to",
          "type": "address"
        },
        {
          "internalType": "uint256",
          "name": "tokenId",
          "type": "uint256"
        }
      ],
      "name": "transferFrom",
      "outputs": [],
      "stateMutability": "nonpayable",
      "type": "function"
    },
    {
      "inputs": [
        {
          "internalType": "address",
          "name": "newOwner",
          "type": "address"
        }
      ],
      "name": "transferOwnership",
      "outputs": [],
      "stateMutability": "nonpayable",
      "type": "function"
    },
    {
      "inputs": [],
      "name": "unpause",
      "outputs": [],
      "stateMutability": "nonpayable",
      "type": "function"
    }
  ],
  "bytecode": "0x608060405234801561001057600080fd5b506040516153cd3803806153cd83398101604081905261002f9161012a565b806040518060400160405280600781526020016626bcaa37b5b2b760c91b815250604051806040016040528060038152602001624d544b60e81b815250816000908161007b91906101f9565b50600161008882826101f9565b50506007805460ff191690555060016008556001600160a01b0381166100c857604051631e4fbdf760e01b81526000600482015260240160405180910390fd5b6100d1816100d8565b50506102b7565b601380546001600160a01b038381166001600160a01b0319831681179093556040519116919082907f8be0079c531659141344cd1fd0a4f28419497f9722a3daafe3b4186f6b6457e090600090a35050565b60006020828403121561013c57600080fd5b81516001600160a01b038116811461015357600080fd5b9392505050565b634e487b7160e01b600052604160045260246000fd5b600181811c9082168061018457607f821691505b6020821081036101a457634e487b7160e01b600052602260045260246000fd5b50919050565b601f8211156101f457806000526020600020601f840160051c810160208510156101d15750805b601f840160051c820191505b818110156101f157600081556001016101dd565b50505b505050565b81516001600160401b038111156102125761021261015a565b610226816102208454610170565b846101aa565b6020601f82116001811461025a57600083156102425750848201515b600019600385901b1c1916600184901b1784556101f1565b600084815260208120601f198516915b8281101561028a578785015182556020948501946001909201910161026a565b50848210156102a85786840151600019600387901b60f8161c191681555b50505050600190811b01905550565b615107806102c66000396000f3fe608060405234801561001057600080fd5b506004361061025c5760003560e01c8063860111c511610145578063b88d4fde116100bd578063d3bd65aa1161008c578063e431cc1f11610071578063e431cc1f14610543578063e985e9c514610556578063f2fde38b1461059257600080fd5b8063d3bd65aa1461051d578063d5a93d681461053057600080fd5b8063b88d4fde146104bc578063c209bf40146104cf578063c87b56dd146104f7578063cfdf4b221461050a57600080fd5b8063970dd1a611610114578063a22cb465116100f9578063a22cb46514610483578063a5411a3f14610496578063a9cabbc2146104a957600080fd5b8063970dd1a61461045057806397d21b201461047057600080fd5b8063860111c5146103ff5780638da5cb5b1461041257806391438cee1461042357806395d89b411461044857600080fd5b80633f4ba83a116101d8578063615dbebb116101a757806370a082311161018c57806370a08231146103ce578063715018a6146103ef5780638456cb59146103f757600080fd5b8063615dbebb146103a85780636352211e146103bb57600080fd5b80633f4ba83a1461036f5780634283dc531461037757806342842e0e1461038a5780635c975abb1461039d57600080fd5b80630ce90ec21161022f57806315305bc81161021457806315305bc81461032957806321e97f5e1461033c57806323b872dd1461035c57600080fd5b80630ce90ec2146102de578063150b7a02146102f157600080fd5b806301ffc9a71461026157806306fdde0314610289578063081812fc1461029e578063095ea7b3146102c9575b600080fd5b61027461026f366004614494565b6105a5565b60405190151581526020015b60405180910390f35b6102916105b6565b6040516102809190614501565b6102b16102ac366004614514565b610648565b6040516001600160a01b039091168152602001610280565b6102dc6102d7366004614549565b610671565b005b6102dc6102ec366004614514565b610680565b6103106102ff366004614573565b630a85bd0160e11b95945050505050565b6040516001600160e01b03199091168152602001610280565b6102dc61033736600461461f565b6106a6565b61034f61034a366004614514565b61070c565b6040516102809190614731565b6102dc61036a3660046147fe565b6108fb565b6102dc6109a4565b6102dc61038536600461483b565b6109b6565b6102dc6103983660046147fe565b6109db565b60075460ff16610274565b6102dc6103b6366004614859565b6109f0565b6102b16103c9366004614514565b610a55565b6103e16103dc3660046148ad565b610a60565b604051908152602001610280565b6102dc610ac1565b6102dc610ad3565b6102dc61040d36600461461f565b610ae3565b6013546001600160a01b03166102b1565b6104366104313660046148c8565b610b36565b60405160ff9091168152602001610280565b610291610c9f565b61046361045e3660046148c8565b610cae565b60405161028091906148f4565b6102dc61047e366004614514565b610e6d565b6102dc61049136600461492b565b610e87565b6102dc6104a4366004614977565b610e92565b6102dc6104b7366004614a29565b610f16565b6102dc6104ca366004614b48565b6110d7565b6104e26104dd366004614bc4565b6110ef565b60405163ffffffff9091168152602001610280565b610291610505366004614514565b611121565b6102dc610518366004614514565b61112c565b6102dc61052b36600461461f565b6114f8565b6102dc61053e36600461492b565b61151e565b6102dc610551366004614be1565b611551565b610274610564366004614c50565b6001600160a01b03918216600090815260056020908152604080832093909416825291909152205460ff1690565b6102dc6105a03660046148ad565b61163f565b60006105b082611693565b92915050565b6060600080546105c590614c7a565b80601f01602080910402602001604051908101604052809291908181526020018280546105f190614c7a565b801561063e5780601f106106135761010080835404028352916020019161063e565b820191906000526020600020905b81548152906001019060200180831161062157829003601f168201915b5050505050905090565b6000610653826116d1565b506000828152600460205260409020546001600160a01b03166105b0565b61067c828233611723565b5050565b610688611730565b61069061176d565b610699816117b0565b6106a36001600855565b50565b6106ae611730565b6106b661176d565b6106c2833384846118ef565b60405160ff84168152819083907f2f26aae5b72b3fb3c74c70bca7e7a4efad0062c20c46345d703156e9b07dc2c0906020015b60405180910390a36107076001600855565b505050565b6107146143a3565b6000828152600e6020908152604091829020825160c08101909352805460ff8082168552919284019161010090910416600c81111561075557610755614654565b600c81111561076657610766614654565b8152815460209091019062010000900460ff16600381111561078a5761078a614654565b600381111561079b5761079b614654565b81526040805161012081018252600184015463ffffffff8116825261ffff640100000000820481166020848101919091526601000000000000830482168486015268010000000000000000830482166060808601919091526a0100000000000000000000840483166080808701919091526c010000000000000000000000008504841660a0808801919091526e0100000000000000000000000000008604851660c0808901919091527001000000000000000000000000000000008704861660e0808a0191909152600160901b909704909516610100880152838901969096528651948501875260028901548552600389015485840152600489015485880152600589015485830152600689015490850152600788015494840194909452600887015491830191909152838501919091528251808301845260098601548152600a86015491810191909152600b9094015491840191909152015292915050565b6001600160a01b03821661092a57604051633250574960e11b8152600060048201526024015b60405180910390fd5b6000610937838333611d55565b9050836001600160a01b0316816001600160a01b03161461099e576040517f64283d7b0000000000000000000000000000000000000000000000000000000081526001600160a01b0380861660048301526024820184905282166044820152606401610921565b50505050565b6109ac611d6c565b6109b4611db2565b565b6109be611730565b6109c661176d565b6109d1823383611e04565b61067c6001600855565b6109e58183612174565b6107078383836122a3565b6109f8611d6c565b600980546001600160a01b0395861673ffffffffffffffffffffffffffffffffffffffff1991821617909155600a805494861694821694909417909355600b805492851692841692909217909155600c8054919093169116179055565b60006105b0826116d1565b60006001600160a01b038216610aa5576040517f89c62b6400000000000000000000000000000000000000000000000000000000815260006004820152602401610921565b506001600160a01b031660009081526003602052604090205490565b610ac9611d6c565b6109b460006122be565b610adb611d6c565b6109b461231d565b610aeb611730565b610af361176d565b610aff8333848461235a565b60405160ff84168152819083907f0465a1002322506dfed20afc3bb14c9a95b582cd05ec8792b7bf20d63fc6fc0a906020016106f5565b6000806000836001600160a01b031685604051602401610b5891815260200190565b60408051601f198184030181529181526020820180517bffffffffffffffffffffffffffffffffffffffffffffffffffffffff167f5887a60d0000000000000000000000000000000000000000000000000000000017905251610bbb9190614cb4565b6000604051808303816000865af19150503d8060008114610bf8576040519150601f19603f3d011682016040523d82523d6000602084013e610bfd565b606091505b5091509150818015610c10575060008151115b610c825760405162461bcd60e51b815260206004820152602260248201527f43616c6c206661696c6564206f722072657475726e656420656d70747920646160448201527f74610000000000000000000000000000000000000000000000000000000000006064820152608401610921565b80806020019051810190610c969190614cd0565b95945050505050565b6060600180546105c590614c7a565b60408051610160810182526000818301818152606083018290526080830182905260a0830182905260c0830182905260e08301829052610100830182905261012083018290526101408301829052825282518084018452818152602080820183905283015291516024810185905290919081906001600160a01b0385169060440160408051601f198184030181529181526020820180517bffffffffffffffffffffffffffffffffffffffffffffffffffffffff167fe4dfeea20000000000000000000000000000000000000000000000000000000017905251610d929190614cb4565b6000604051808303816000865af19150503d8060008114610dcf576040519150601f19603f3d011682016040523d82523d6000602084013e610dd4565b606091505b5091509150818015610de7575060008151115b610e595760405162461bcd60e51b815260206004820152602260248201527f43616c6c206661696c6564206f722072657475726e656420656d70747920646160448201527f74610000000000000000000000000000000000000000000000000000000000006064820152608401610921565b80806020019051810190610c969190614d45565b610e75611730565b610e7d61176d565b6106998133612523565b61067c338383612a9c565b610ea3338989898989898989612b54565b6040805161ffff89811682528881166020830152878116828401528681166060830152858116608083015284811660a0830152831660c0820152905189917f99a9325ce02a4ad127b017529ae7c84ac204d95d048668ad475cd01f6bcfbdef919081900360e00190a25050505050505050565b610f1e611730565b610f2661176d565b336000908152600d602052604090205460ff161515600114610f8a5760405162461bcd60e51b815260206004820152601360248201527f4e6f7420626174746c6520636f6e7472616374000000000000000000000000006044820152606401610921565b60008263ffffffff161180610fa3575060008161ffff16115b610fef5760405162461bcd60e51b815260206004820152601560248201527f496e76616c6964207265776172642076616c75657300000000000000000000006044820152606401610921565b6000838152600e6020526040902060018101805483919060129061101f908490600160901b900461ffff16614e45565b92506101000a81548161ffff021916908361ffff160217905550828160010160000160008282829054906101000a900463ffffffff1661105f9190614e5f565b92506101000a81548163ffffffff021916908363ffffffff160217905550837f555d6286865a992c28674b9b0313e0f6bbba98c318be02317b406bdd3a4d495e84846040516110c492919063ffffffff92909216825261ffff16602082015260400190565b60405180910390a2506107076001600855565b6110e28484846108fb565b61099e3385858585612e6f565b60006032600a80611101600186614e7b565b61ffff1661110f9190614e95565b6111199083614e5f565b949350505050565b60606105b082612f99565b611134611730565b61113c61176d565b336000908152600d602052604090205460ff1615156001146111a05760405162461bcd60e51b815260206004820152601360248201527f4e6f7420626174746c6520636f6e7472616374000000000000000000000000006044820152606401610921565b336111aa82610a55565b6001600160a01b0316146112005760405162461bcd60e51b815260206004820152600d60248201527f4e6f74204e4654206f776e6572000000000000000000000000000000000000006044820152606401610921565b6000818152600e6020526040902060078154610100900460ff16600c81111561122b5761122b614654565b14801561123f57508054603d60ff90911610155b156112e757805461ff00191661080017815560018101805460329190601290611274908490600160901b900461ffff16614e45565b825461ffff91821661010093840a908102920219161790915582547fe18033eed2ebfb0468fa8b9fdc083ac4f57efdb4b5d6bfcb225bba759ffcf8ad9250849160ff910416600c8111156112ca576112ca614654565b6040805192835260208301919091520160405180910390a16114ed565b60088154610100900460ff16600c81111561130457611304614654565b14801561131857508054604760ff90911610155b1561134d57805461ff00191661090017815560018101805460419190601290611274908490600160901b900461ffff16614e45565b60098154610100900460ff16600c81111561136a5761136a614654565b14801561137e57508054605160ff90911610155b156113b357805461ff001916610a00178155600181018054604b9190601290611274908490600160901b900461ffff16614e45565b600a8154610100900460ff16600c8111156113d0576113d0614654565b1480156113e457508054605b60ff90911610155b1561141957805461ff001916610b0017815560018101805460559190601290611274908490600160901b900461ffff16614e45565b600b8154610100900460ff16600c81111561143657611436614654565b14801561144a57508054606560ff90911610155b1561147f57805461ff001916610c0017815560018101805460649190601290611274908490600160901b900461ffff16614e45565b60405162461bcd60e51b815260206004820152602160248201527f52616e6b2070726f6d6f74696f6e20636f6e646974696f6e73206e6f74206d6560448201527f74000000000000000000000000000000000000000000000000000000000000006064820152608401610921565b506106a36001600855565b611500611730565b61150861176d565b6115148333848461235a565b6107076001600855565b611526611d6c565b6001600160a01b03919091166000908152600d60205260409020805460ff1916911515919091179055565b6013546001600160a01b031633148061157457506009546001600160a01b031633145b6115c05760405162461bcd60e51b815260206004820152600d60248201527f4e6f742041757468206d696e74000000000000000000000000000000000000006044820152606401610921565b60148054600091826115d183614eb4565b9190505590506115e184826130a2565b6115eb81846130bc565b6115f5818361310c565b80846001600160a01b03167fbab280e150acfcbe7f3b59ce2144615a5238ad7ed9b19cdb3f756598f5d96e9b8585604051611631929190614ece565b60405180910390a350505050565b611647611d6c565b6001600160a01b03811661168a576040517f1e4fbdf700000000000000000000000000000000000000000000000000000000815260006004820152602401610921565b6106a3816122be565b60006001600160e01b031982167f490649060000000000000000000000000000000000000000000000000000000014806105b057506105b082613484565b6000818152600260205260408120546001600160a01b0316806105b0576040517f7e27328900000000000000000000000000000000000000000000000000000000815260048101849052602401610921565b610707838383600161351f565b60075460ff16156109b4576040517fd93c066500000000000000000000000000000000000000000000000000000000815260040160405180910390fd5b6002600854036117a9576040517f3ee5aeb500000000000000000000000000000000000000000000000000000000815260040160405180910390fd5b6002600855565b6000818152600e602052604090205b80546117cd9060ff166110ef565b600182015463ffffffff91821691161061067c5780546000906117f29060ff166110ef565b600183018054919250829160009061181190849063ffffffff16614ef0565b92506101000a81548163ffffffff021916908363ffffffff16021790555060018260000160008282829054906101000a900460ff166118509190614f0c565b92506101000a81548160ff021916908360ff16021790555060078260010160000160128282829054906101000a900461ffff1661188d9190614e45565b825461ffff9182166101009390930a92830291909202199091161790555081546040805185815260ff90921660208301527ff9c0df78f5971a6ba2a9b0be5ece0fa71b8c42571ddc8c7cebc6807816bdc773910160405180910390a1506117bf565b600a546119069083906001600160a01b0316610b36565b60ff168460ff161461195a5760405162461bcd60e51b815260206004820152601960248201527f53657420636f7272656374204974656d20666f7220636f6465000000000000006044820152606401610921565b826001600160a01b031661196d83610a55565b6001600160a01b0316146119c35760405162461bcd60e51b815260206004820152601460248201527f596f7520686176656e27742074686973204e46540000000000000000000000006044820152606401610921565b6001600160a01b038316600090815260116020526040902054600611611a2b5760405162461bcd60e51b815260206004820181905260248201527f596f75206e65656420746f20656d70747920796f757220696e76656e746f72796044820152606401610921565b600a54611a43906001600160a01b031684308461366a565b6001600160a01b0383166000908152600f602090815260408083208484529091528120805460019290611a7a90849060ff16614f0c565b825460ff9182166101009390930a9283029190920219909116179055506000828152600e60205260409020611ab1848287856136f3565b600a54600090611acb9085906001600160a01b0316610cae565b805160e00151600184015491925061ffff908116700100000000000000000000000000000000909204161015611b695760405162461bcd60e51b815260206004820152602560248201527f496e73756666696369656e7420696e74656c6967656e7420666f72207468697360448201527f204974656d0000000000000000000000000000000000000000000000000000006064820152608401610921565b805160200151600183018054600490611b8f908490640100000000900461ffff16614e45565b92506101000a81548161ffff021916908361ffff1602179055508060000151604001518260010160000160068282829054906101000a900461ffff16611bd59190614e45565b92506101000a81548161ffff021916908361ffff1602179055508060000151606001518260010160000160088282829054906101000a900461ffff16611c1b9190614e45565b92506101000a81548161ffff021916908361ffff16021790555080600001516080015182600101600001600a8282829054906101000a900461ffff16611c619190614e45565b92506101000a81548161ffff021916908361ffff160217905550806000015160a0015182600101600001600c8282829054906101000a900461ffff16611ca79190614e45565b92506101000a81548161ffff021916908361ffff160217905550806000015160c0015182600101600001600e8282829054906101000a900461ffff16611ced9190614e45565b92506101000a81548161ffff021916908361ffff160217905550806000015160e001518260010160000160108282829054906101000a900461ffff16611d339190614e45565b92506101000a81548161ffff021916908361ffff160217905550505050505050565b6000611d6284848461393e565b90505b9392505050565b6013546001600160a01b031633146109b4576040517f118cdaa7000000000000000000000000000000000000000000000000000000008152336004820152602401610921565b611dba613953565b6007805460ff191690557f5db9ee0a495bf2e6ff9c91a7834c1ba4fdd244a5e8aa4e537bd38aeae4b073aa335b6040516001600160a01b03909116815260200160405180910390a1565b816001600160a01b0316611e1782610a55565b6001600160a01b031614611e6d5760405162461bcd60e51b815260206004820152601460248201527f596f7520686176656e27742074686973204e46540000000000000000000000006044820152606401610921565b6001600160a01b038216600090815260116020526040902054600611611ed55760405162461bcd60e51b815260206004820181905260248201527f596f75206e65656420746f20656d70747920796f757220696e76656e746f72796044820152606401610921565b6000818152600e6020526040812090611eef84838761398f565b600a54909150600090611f0c9085906001600160a01b0316610cae565b805160e00151600185015491925061ffff908116700100000000000000000000000000000000909204161015611faa5760405162461bcd60e51b815260206004820152602560248201527f496e73756666696369656e7420696e74656c6967656e7420666f72207468697360448201527f204974656d0000000000000000000000000000000000000000000000000000006064820152608401610921565b805160200151600184018054600490611fd0908490640100000000900461ffff16614e7b565b92506101000a81548161ffff021916908361ffff1602179055508060000151604001518360010160000160068282829054906101000a900461ffff166120169190614e7b565b92506101000a81548161ffff021916908361ffff1602179055508060000151606001518360010160000160088282829054906101000a900461ffff1661205c9190614e7b565b92506101000a81548161ffff021916908361ffff16021790555080600001516080015183600101600001600a8282829054906101000a900461ffff166120a29190614e7b565b92506101000a81548161ffff021916908361ffff160217905550806000015160a0015183600101600001600c8282829054906101000a900461ffff166120e89190614e7b565b92506101000a81548161ffff021916908361ffff160217905550806000015160c0015183600101600001600e8282829054906101000a900461ffff1661212e9190614e7b565b92506101000a81548161ffff021916908361ffff160217905550806000015160e001518360010160000160108282829054906101000a900461ffff16611d339190614e7b565b6001600160a01b0381166000908152600d602052604090205460ff16151560010361219d575050565b6000828152600e6020526040902060028101541515806121c05750600381015415155b806121ce5750600481015415155b806121dc5750600581015415155b806121ea5750600681015415155b806121f85750600781015415155b806122065750600881015415155b806122145750600981015415155b806122225750600a81015415155b806122305750600b81015415155b156107075760405162461bcd60e51b815260206004820152602760248201527f436861726163746572206d757374206265206e616b6564206265666f7265207460448201527f72617366657274000000000000000000000000000000000000000000000000006064820152608401610921565b610707838383604051806020016040528060008152506110d7565b601380546001600160a01b0383811673ffffffffffffffffffffffffffffffffffffffff19831681179093556040519116919082907f8be0079c531659141344cd1fd0a4f28419497f9722a3daafe3b4186f6b6457e090600090a35050565b612325611730565b6007805460ff191660011790557f62e78cea01bee320cd4e420270b5ea74000d11b0c9f74754ebdbfc544b05a258611de73390565b600a546123719083906001600160a01b0316610b36565b60ff168460ff16146123c55760405162461bcd60e51b815260206004820152601960248201527f53657420636f7272656374204974656d20666f7220636f6465000000000000006044820152606401610921565b826001600160a01b03166123d883610a55565b6001600160a01b03161461242e5760405162461bcd60e51b815260206004820152601460248201527f596f7520686176656e27742074686973204e46540000000000000000000000006044820152606401610921565b6001600160a01b0383166000908152601260205260409020546006116124965760405162461bcd60e51b815260206004820181905260248201527f596f75206e65656420746f20656d70747920796f757220696e76656e746f72796044820152606401610921565b600a546124ae906001600160a01b031684308461366a565b6001600160a01b038316600090815260106020908152604080832084845290915281208054600192906124e590849060ff16614f0c565b825460ff9182166101009390930a9283029190920219909116179055506000828152600e6020526040902061251c84828785613dd5565b5050505050565b806001600160a01b031661253683610a55565b6001600160a01b03161461258c5760405162461bcd60e51b815260206004820152601460248201527f596f7520686176656e27742074686973204e46540000000000000000000000006044820152606401610921565b6000828152600e602052604090208054600b60ff909116108015906125cb575060008154610100900460ff16600c8111156125c9576125c9614654565b145b1561266f57805461ff001916610100178155600181018054600a9190601290612600908490600160901b900461ffff16614e45565b825461ffff91821661010093840a908102920219161790915582547fe18033eed2ebfb0468fa8b9fdc083ac4f57efdb4b5d6bfcb225bba759ffcf8ad9250859160ff910416600c81111561265657612656614654565b6040805192835260208301919091520160405180910390a15b8054601560ff909116108015906126a0575060018154610100900460ff16600c81111561269e5761269e614654565b145b1561274457805461ff001916610200178155600181018054600c91906012906126d5908490600160901b900461ffff16614e45565b825461ffff91821661010093840a908102920219161790915582547fe18033eed2ebfb0468fa8b9fdc083ac4f57efdb4b5d6bfcb225bba759ffcf8ad9250859160ff910416600c81111561272b5761272b614654565b6040805192835260208301919091520160405180910390a15b8054601f60ff90911610801590612775575060028154610100900460ff16600c81111561277357612773614654565b145b1561281957805461ff001916610300178155600181018054600f91906012906127aa908490600160901b900461ffff16614e45565b825461ffff91821661010093840a908102920219161790915582547fe18033eed2ebfb0468fa8b9fdc083ac4f57efdb4b5d6bfcb225bba759ffcf8ad9250859160ff910416600c81111561280057612800614654565b6040805192835260208301919091520160405180910390a15b8054602960ff9091161080159061284a575060038154610100900460ff16600c81111561284857612848614654565b145b156128ee57805461ff0019166104001781556001810180546014919060129061287f908490600160901b900461ffff16614e45565b825461ffff91821661010093840a908102920219161790915582547fe18033eed2ebfb0468fa8b9fdc083ac4f57efdb4b5d6bfcb225bba759ffcf8ad9250859160ff910416600c8111156128d5576128d5614654565b6040805192835260208301919091520160405180910390a15b8054603360ff9091161080159061291f575060048154610100900460ff16600c81111561291d5761291d614654565b145b156129c357805461ff001916610500178155600181018054601e9190601290612954908490600160901b900461ffff16614e45565b825461ffff91821661010093840a908102920219161790915582547fe18033eed2ebfb0468fa8b9fdc083ac4f57efdb4b5d6bfcb225bba759ffcf8ad9250859160ff910416600c8111156129aa576129aa614654565b6040805192835260208301919091520160405180910390a15b8054603d60ff909116108015906129f4575060058154610100900460ff16600c8111156129f2576129f2614654565b145b1561070757805461ff00191661060017815560018101805460289190601290612a29908490600160901b900461ffff16614e45565b825461ffff91821661010093840a908102920219161790915582547fe18033eed2ebfb0468fa8b9fdc083ac4f57efdb4b5d6bfcb225bba759ffcf8ad9250859160ff910416600c811115612a7f57612a7f614654565b6040805192835260208301919091520160405180910390a1505050565b6001600160a01b038216612ae7576040517f5b08ba180000000000000000000000000000000000000000000000000000000081526001600160a01b0383166004820152602401610921565b6001600160a01b03838116600081815260056020908152604080832094871680845294825291829020805460ff191686151590811790915591519182527f17307eab39ab6107e8899845ad3d59bd9653f200f220920489ca2b5937696c31910160405180910390a3505050565b886001600160a01b0316612b6789610a55565b6001600160a01b031614612bbd5760405162461bcd60e51b815260206004820152601460248201527f596f7520686176656e27742074686973204e46540000000000000000000000006044820152606401610921565b60008183858789612bce8c8e614e45565b612bd89190614e45565b612be29190614e45565b612bec9190614e45565b612bf69190614e45565b612c009190614e45565b60008a8152600e6020526040902060018101549192509061ffff808416600160901b909204161015612c745760405162461bcd60e51b815260206004820152601260248201527f696e737566696369656e7420506f696e747300000000000000000000000000006044820152606401610921565b600181018054839190601290612c96908490600160901b900461ffff16614e7b565b92506101000a81548161ffff021916908361ffff160217905550888160010160000160048282829054906101000a900461ffff16612cd49190614e45565b92506101000a81548161ffff021916908361ffff160217905550878160010160000160068282829054906101000a900461ffff16612d129190614e45565b92506101000a81548161ffff021916908361ffff160217905550868160010160000160088282829054906101000a900461ffff16612d509190614e45565b92506101000a81548161ffff021916908361ffff1602179055508581600101600001600a8282829054906101000a900461ffff16612d8e9190614e45565b92506101000a81548161ffff021916908361ffff1602179055508481600101600001600c8282829054906101000a900461ffff16612dcc9190614e45565b92506101000a81548161ffff021916908361ffff1602179055508381600101600001600e8282829054906101000a900461ffff16612e0a9190614e45565b92506101000a81548161ffff021916908361ffff160217905550828160010160000160108282829054906101000a900461ffff16612e489190614e45565b92506101000a81548161ffff021916908361ffff1602179055505050505050505050505050565b6001600160a01b0383163b1561251c57604051630a85bd0160e11b81526001600160a01b0384169063150b7a0290612eb1908890889087908790600401614f25565b6020604051808303816000875af1925050508015612eec575060408051601f3d908101601f19168201909252612ee991810190614f66565b60015b612f55573d808015612f1a576040519150601f19603f3d011682016040523d82523d6000602084013e612f1f565b606091505b508051600003612f4d57604051633250574960e11b81526001600160a01b0385166004820152602401610921565b805181602001fd5b6001600160e01b03198116630a85bd0160e11b14612f9157604051633250574960e11b81526001600160a01b0385166004820152602401610921565b505050505050565b6060612fa4826116d1565b5060008281526006602052604081208054612fbe90614c7a565b80601f0160208091040260200160405190810160405280929190818152602001828054612fea90614c7a565b80156130375780601f1061300c57610100808354040283529160200191613037565b820191906000526020600020905b81548152906001019060200180831161301a57829003601f168201915b50505050509050600061305560408051602081019091526000815290565b90508051600003613067575092915050565b815115613099578082604051602001613081929190614f83565b60405160208183030381529060405292505050919050565b61111984613ef8565b61067c828260405180602001604052806000815250613f6c565b60008281526006602052604090206130d48282614ff9565b506040518281527ff8e1a15aba9398e019f0b49df1a4fde98ee17ae345cb5f6b5e2c27f5033e8ce79060200160405180910390a15050565b6040805160c081018252600181526000602082015290810182600381111561313657613136614654565b8152602001604051806101200160405280600063ffffffff168152602001602361ffff168152602001601961ffff168152602001600f61ffff168152602001601a61ffff168152602001601661ffff168152602001600c61ffff168152602001600a61ffff168152602001603261ffff1681525081526020016040518060e0016040528060008152602001600081526020016000815260200160008152602001600081526020016000815260200160008152508152602001604051806060016040528060008152602001600081526020016000815250815250600e600084815260200190815260200160002060008201518160000160006101000a81548160ff021916908360ff16021790555060208201518160000160016101000a81548160ff0219169083600c81111561326d5761326d614654565b02179055506040820151815482907fffffffffffffffffffffffffffffffffffffffffffffffffffffffffff00ffff16620100008360038111156132b3576132b3614654565b021790555060608201518160010160008201518160000160006101000a81548163ffffffff021916908363ffffffff16021790555060208201518160000160046101000a81548161ffff021916908361ffff16021790555060408201518160000160066101000a81548161ffff021916908361ffff16021790555060608201518160000160086101000a81548161ffff021916908361ffff160217905550608082015181600001600a6101000a81548161ffff021916908361ffff16021790555060a082015181600001600c6101000a81548161ffff021916908361ffff16021790555060c082015181600001600e6101000a81548161ffff021916908361ffff16021790555060e08201518160000160106101000a81548161ffff021916908361ffff1602179055506101008201518160000160126101000a81548161ffff021916908361ffff1602179055505050608082015181600201600082015181600001556020820151816001015560408201518160020155606082015181600301556080820151816004015560a0820151816005015560c08201518160060155505060a08201518160090160008201518160000155602082015181600101556040820151816002015550509050505050565b60006001600160e01b031982167f80ac58cd0000000000000000000000000000000000000000000000000000000014806134e757506001600160e01b031982167f5b5e139f00000000000000000000000000000000000000000000000000000000145b806105b057507f01ffc9a7000000000000000000000000000000000000000000000000000000006001600160e01b03198316146105b0565b808061353357506001600160a01b03821615155b1561362d576000613543846116d1565b90506001600160a01b0383161580159061356f5750826001600160a01b0316816001600160a01b031614155b80156135a157506001600160a01b0380821660009081526005602090815260408083209387168352929052205460ff16155b156135e3576040517fa9fbf51f0000000000000000000000000000000000000000000000000000000081526001600160a01b0384166004820152602401610921565b811561362b5783856001600160a01b0316826001600160a01b03167f8c5be1e5ebec7d5bd14f71427d1e84f3dd0314c0f7b2291e5b200ac8c7c3b92560405160405180910390a45b505b50506000908152600460205260409020805473ffffffffffffffffffffffffffffffffffffffff19166001600160a01b0392909216919091179055565b6040517f42842e0e0000000000000000000000000000000000000000000000000000000081526001600160a01b0384811660048301528381166024830152604482018390528516906342842e0e90606401600060405180830381600087803b1580156136d557600080fd5b505af11580156136e9573d6000803e3d6000fd5b5050505050505050565b8160ff166064036137405760028301805490829055801561373a576001600160a01b0385166000908152601160209081526040822080546001810182559083529120018190555b5061099e565b8160ff166065036137895760038301805490829055801561373a576001600160a01b0385166000908152601160209081526040822080546001810182559083529120015561099e565b8160ff166066036137d25760048301805490829055801561373a576001600160a01b0385166000908152601160209081526040822080546001810182559083529120015561099e565b8160ff1660670361381b5760058301805490829055801561373a576001600160a01b0385166000908152601160209081526040822080546001810182559083529120015561099e565b8160ff166068036138645760068301805490829055801561373a576001600160a01b0385166000908152601160209081526040822080546001810182559083529120015561099e565b8160ff166069036138ad5760078301805490829055801561373a576001600160a01b0385166000908152601160209081526040822080546001810182559083529120015561099e565b8160ff16606a036138f65760088301805490829055801561373a576001600160a01b0385166000908152601160209081526040822080546001810182559083529120015561099e565b60405162461bcd60e51b815260206004820152601660248201527f496e76616c69642065717569706d656e7420736c6f74000000000000000000006044820152606401610921565b6000613948611730565b611d62848484613f84565b60075460ff166109b4576040517f8dfc202b00000000000000000000000000000000000000000000000000000000815260040160405180910390fd5b60008160ff16606403613a2d5760028301546001600160a01b0385166000908152600f6020908152604080832084845290915281208054600192906139d890849060ff166150b8565b825460ff9182166101009390930a9283029190920219909116179055506000600285018190556001600160a01b0386168152601160209081526040822080546001810182559083529120018190559050611d65565b8160ff16606503613ac95760038301546001600160a01b0385166000908152600f602090815260408083208484529091528120805460019290613a7490849060ff166150b8565b825460ff9182166101009390930a9283029190920219909116179055506000600385018190556001600160a01b0386168152601160209081526040822080546001810182559083529120018190559050611d65565b8160ff16606603613b655760048301546001600160a01b0385166000908152600f602090815260408083208484529091528120805460019290613b1090849060ff166150b8565b825460ff9182166101009390930a9283029190920219909116179055506000600485018190556001600160a01b0386168152601160209081526040822080546001810182559083529120018190559050611d65565b8160ff16606703613c015760058301546001600160a01b0385166000908152600f602090815260408083208484529091528120805460019290613bac90849060ff166150b8565b825460ff9182166101009390930a9283029190920219909116179055506000600585018190556001600160a01b0386168152601160209081526040822080546001810182559083529120018190559050611d65565b8160ff16606803613c9d5760068301546001600160a01b0385166000908152600f602090815260408083208484529091528120805460019290613c4890849060ff166150b8565b825460ff9182166101009390930a9283029190920219909116179055506000600685018190556001600160a01b0386168152601160209081526040822080546001810182559083529120018190559050611d65565b8160ff16606903613d395760078301546001600160a01b0385166000908152600f602090815260408083208484529091528120805460019290613ce490849060ff166150b8565b825460ff9182166101009390930a9283029190920219909116179055506000600785018190556001600160a01b0386168152601160209081526040822080546001810182559083529120018190559050611d65565b8160ff16606a036138f65760088301546001600160a01b0385166000908152600f602090815260408083208484529091528120805460019290613d8090849060ff166150b8565b825460ff9182166101009390930a9283029190920219909116179055506000600885018190556001600160a01b0386168152601160209081526040822080546001810182559083529120018190559050611d65565b8160ff16606b03613e1e5760098301805490829055801561373a576001600160a01b0385166000908152601160209081526040822080546001810182559083529120015561099e565b8160ff16606c03613e6757600a8301805490829055801561373a576001600160a01b0385166000908152601260209081526040822080546001810182559083529120015561099e565b8160ff16606d03613eb057600b8301805490829055801561373a576001600160a01b0385166000908152601260209081526040822080546001810182559083529120015561099e565b60405162461bcd60e51b815260206004820152601760248201527f496e76616c696420736b696c2f7469746c6520736c6f740000000000000000006044820152606401610921565b6060613f03826116d1565b506000613f1b60408051602081019091526000815290565b90506000815111613f3b5760405180602001604052806000815250611d65565b80613f458461408a565b604051602001613f56929190614f83565b6040516020818303038152906040529392505050565b613f76838361412a565b610707336000858585612e6f565b6000828152600260205260408120546001600160a01b0390811690831615613fb157613fb18184866141a8565b6001600160a01b03811615613fef57613fce60008560008061351f565b6001600160a01b038116600090815260036020526040902080546000190190555b6001600160a01b0385161561401e576001600160a01b0385166000908152600360205260409020805460010190555b600084815260026020526040808220805473ffffffffffffffffffffffffffffffffffffffff19166001600160a01b0389811691821790925591518793918516917fddf252ad1be2c89b69c2b068fc378daa952ba7f163c4a11628f55a4df523b3ef91a4949350505050565b606060006140978361423e565b600101905060008167ffffffffffffffff8111156140b7576140b7614a6b565b6040519080825280601f01601f1916602001820160405280156140e1576020820181803683370190505b5090508181016020015b600019017f3031323334353637383961626364656600000000000000000000000000000000600a86061a8153600a85049450846140eb57509392505050565b6001600160a01b03821661415457604051633250574960e11b815260006004820152602401610921565b600061416283836000611d55565b90506001600160a01b03811615610707576040517f73c6ac6e00000000000000000000000000000000000000000000000000000000815260006004820152602401610921565b6141b3838383614320565b610707576001600160a01b0383166141fa576040517f7e27328900000000000000000000000000000000000000000000000000000000815260048101829052602401610921565b6040517f177e802f0000000000000000000000000000000000000000000000000000000081526001600160a01b038316600482015260248101829052604401610921565b6000807a184f03e93ff9f4daa797ed6e38ed64bf6a1f0100000000000000008310614287577a184f03e93ff9f4daa797ed6e38ed64bf6a1f010000000000000000830492506040015b6d04ee2d6d415b85acef810000000083106142b3576d04ee2d6d415b85acef8100000000830492506020015b662386f26fc1000083106142d157662386f26fc10000830492506010015b6305f5e10083106142e9576305f5e100830492506008015b61271083106142fd57612710830492506004015b6064831061430f576064830492506002015b600a83106105b05760010192915050565b60006001600160a01b03831615801590611d625750826001600160a01b0316846001600160a01b0316148061437a57506001600160a01b0380851660009081526005602090815260408083209387168352929052205460ff165b80611d625750506000908152600460205260409020546001600160a01b03908116911614919050565b6040805160c0810190915260008082526020820190815260200160008152604080516101208101825260008082526020828101829052928201819052606082018190526080820181905260a0820181905260c0820181905260e0820181905261010082015291019081526020016144506040518060e00160405280600081526020016000815260200160008152602001600081526020016000815260200160008152602001600081525090565b815260200161447960405180606001604052806000815260200160008152602001600081525090565b905290565b6001600160e01b0319811681146106a357600080fd5b6000602082840312156144a657600080fd5b8135611d658161447e565b60005b838110156144cc5781810151838201526020016144b4565b50506000910152565b600081518084526144ed8160208601602086016144b1565b601f01601f19169290920160200192915050565b602081526000611d6560208301846144d5565b60006020828403121561452657600080fd5b5035919050565b80356001600160a01b038116811461454457600080fd5b919050565b6000806040838503121561455c57600080fd5b6145658361452d565b946020939093013593505050565b60008060008060006080868803121561458b57600080fd5b6145948661452d565b94506145a26020870161452d565b935060408601359250606086013567ffffffffffffffff8111156145c557600080fd5b8601601f810188136145d657600080fd5b803567ffffffffffffffff8111156145ed57600080fd5b8860208284010111156145ff57600080fd5b959894975092955050506020019190565b60ff811681146106a357600080fd5b60008060006060848603121561463457600080fd5b833561463f81614610565b95602085013595506040909401359392505050565b634e487b7160e01b600052602160045260246000fd5b6004811061467a5761467a614654565b9052565b63ffffffff815116825261ffff602082015116602083015260408101516146ab604084018261ffff169052565b5060608101516146c1606084018261ffff169052565b5060808101516146d7608084018261ffff169052565b5060a08101516146ed60a084018261ffff169052565b5060c081015161470360c084018261ffff169052565b5060e081015161471960e084018261ffff169052565b5061010081015161070761010084018261ffff169052565b815160ff16815260208201516102c0820190600d811061475357614753614654565b80602084015250604083015161476c604084018261466a565b50606083015161477f606084018261467e565b506080830151805161018084015260208101516101a084015260408101516101c084015260608101516101e0840152608081015161020084015260a081015161022084015260c08101516102408401525060a08301516147f76102608401828051825260208082015190830152604090810151910152565b5092915050565b60008060006060848603121561481357600080fd5b61481c8461452d565b925061482a6020850161452d565b929592945050506040919091013590565b6000806040838503121561484e57600080fd5b823561456581614610565b6000806000806080858703121561486f57600080fd5b6148788561452d565b93506148866020860161452d565b92506148946040860161452d565b91506148a26060860161452d565b905092959194509250565b6000602082840312156148bf57600080fd5b611d658261452d565b600080604083850312156148db57600080fd5b823591506148eb6020840161452d565b90509250929050565b60006101608201905061490882845161467e565b602092830151805160ff166101208401529092015161ffff166101409091015290565b6000806040838503121561493e57600080fd5b6149478361452d565b91506020830135801515811461495c57600080fd5b809150509250929050565b61ffff811681146106a357600080fd5b600080600080600080600080610100898b03121561499457600080fd5b8835975060208901356149a681614967565b965060408901356149b681614967565b955060608901356149c681614967565b945060808901356149d681614967565b935060a08901356149e681614967565b925060c08901356149f681614967565b915060e0890135614a0681614967565b809150509295985092959890939650565b63ffffffff811681146106a357600080fd5b600080600060608486031215614a3e57600080fd5b833592506020840135614a5081614a17565b91506040840135614a6081614967565b809150509250925092565b634e487b7160e01b600052604160045260246000fd5b6040805190810167ffffffffffffffff81118282101715614aa457614aa4614a6b565b60405290565b604051610120810167ffffffffffffffff81118282101715614aa457614aa4614a6b565b60008067ffffffffffffffff841115614ae957614ae9614a6b565b50604051601f19601f85018116603f0116810181811067ffffffffffffffff82111715614b1857614b18614a6b565b604052838152905080828401851015614b3057600080fd5b83836020830137600060208583010152509392505050565b60008060008060808587031215614b5e57600080fd5b614b678561452d565b9350614b756020860161452d565b925060408501359150606085013567ffffffffffffffff811115614b9857600080fd5b8501601f81018713614ba957600080fd5b614bb887823560208401614ace565b91505092959194509250565b600060208284031215614bd657600080fd5b8135611d6581614967565b600080600060608486031215614bf657600080fd5b614bff8461452d565b9250602084013567ffffffffffffffff811115614c1b57600080fd5b8401601f81018613614c2c57600080fd5b614c3b86823560208401614ace565b925050604084013560048110614a6057600080fd5b60008060408385031215614c6357600080fd5b614c6c8361452d565b91506148eb6020840161452d565b600181811c90821680614c8e57607f821691505b602082108103614cae57634e487b7160e01b600052602260045260246000fd5b50919050565b60008251614cc68184602087016144b1565b9190910192915050565b600060208284031215614ce257600080fd5b8151611d6581614610565b805161454481614a17565b805161454481614967565b600060408284031215614d1557600080fd5b614d1d614a81565b90508151614d2a81614610565b81526020820151614d3a81614967565b602082015292915050565b600081830361016081128015614d5a57600080fd5b50614d63614a81565b610120821215614d7257600080fd5b614d7a614aaa565b9150614d8584614ced565b8252614d9360208501614cf8565b6020830152614da460408501614cf8565b6040830152614db560608501614cf8565b6060830152614dc660808501614cf8565b6080830152614dd760a08501614cf8565b60a0830152614de860c08501614cf8565b60c0830152614df960e08501614cf8565b60e0830152614e0b6101008501614cf8565b610100830152818152614e22856101208601614d03565b6020820152949350505050565b634e487b7160e01b600052601160045260246000fd5b61ffff81811683821601908111156105b0576105b0614e2f565b63ffffffff81811683821601908111156105b0576105b0614e2f565b61ffff82811682821603908111156105b0576105b0614e2f565b63ffffffff81811683821602908116908181146147f7576147f7614e2f565b60006000198203614ec757614ec7614e2f565b5060010190565b604081526000614ee160408301856144d5565b9050611d65602083018461466a565b63ffffffff82811682821603908111156105b0576105b0614e2f565b60ff81811683821601908111156105b0576105b0614e2f565b6001600160a01b03851681526001600160a01b0384166020820152826040820152608060608201526000614f5c60808301846144d5565b9695505050505050565b600060208284031215614f7857600080fd5b8151611d658161447e565b60008351614f958184602088016144b1565b835190830190614fa98183602088016144b1565b01949350505050565b601f82111561070757806000526020600020601f840160051c81016020851015614fd95750805b601f840160051c820191505b8181101561251c5760008155600101614fe5565b815167ffffffffffffffff81111561501357615013614a6b565b615027816150218454614c7a565b84614fb2565b6020601f82116001811461505b57600083156150435750848201515b600019600385901b1c1916600184901b17845561251c565b600084815260208120601f198516915b8281101561508b578785015182556020948501946001909201910161506b565b50848210156150a95786840151600019600387901b60f8161c191681555b50505050600190811b01905550565b60ff82811682821603908111156105b0576105b0614e2f56fea264697066735822122020ff99edd701c4cc96e6048b12a42e50afe40ca46838ebb25238d800d82a134b64736f6c634300081c0033",
  "linkReferences": {},
  "deployedLinkReferences": {}
}