{
  "_format": "hh-sol-artifact-1",
  "contractName": "NFTSale",
  "sourceName": "contracts/SaleContract/NftSale.sol",
  "abi": [
    {
      "inputs": [
        {
          "internalType": "address",
          "name": "initialOwner",
          "type": "address"
        },
        {
          "internalType": "address",
          "name": "_ironNftContract",
          "type": "address"
        },
        {
          "internalType": "address",
          "name": "_tresury",
          "type": "address"
        }
      ],
      "stateMutability": "payable",
      "type": "constructor"
    },
    {
      "inputs": [
        {
          "internalType": "address",
          "name": "owner",
          "type": "address"
        }
      ],
      "name": "OwnableInvalidOwner",
      "type": "error"
    },
    {
      "inputs": [
        {
          "internalType": "address",
          "name": "account",
          "type": "address"
        }
      ],
      "name": "OwnableUnauthorizedAccount",
      "type": "error"
    },
    {
      "anonymous": false,
      "inputs": [
        {
          "indexed": true,
          "internalType": "address",
          "name": "user",
          "type": "address"
        },
        {
          "indexed": false,
          "internalType": "uint256",
          "name": "amount",
          "type": "uint256"
        }
      ],
      "name": "NewMint",
      "type": "event"
    },
    {
      "anonymous": false,
      "inputs": [
        {
          "indexed": true,
          "internalType": "address",
          "name": "previousOwner",
          "type": "address"
        },
        {
          "indexed": true,
          "internalType": "address",
          "name": "newOwner",
          "type": "address"
        }
      ],
      "name": "OwnershipTransferred",
      "type": "event"
    },
    {
      "anonymous": false,
      "inputs": [
        {
          "indexed": true,
          "internalType": "uint256",
          "name": "amount",
          "type": "uint256"
        }
      ],
      "name": "WithdrawBalance",
      "type": "event"
    },
    {
      "inputs": [],
      "name": "MAX_SUPPLY",
      "outputs": [
        {
          "internalType": "uint16",
          "name": "",
          "type": "uint16"
        }
      ],
      "stateMutability": "view",
      "type": "function"
    },
    {
      "inputs": [],
      "name": "PRICE_1stOne",
      "outputs": [
        {
          "internalType": "uint256",
          "name": "",
          "type": "uint256"
        }
      ],
      "stateMutability": "view",
      "type": "function"
    },
    {
      "inputs": [],
      "name": "PRICE_1stThree",
      "outputs": [
        {
          "internalType": "uint256",
          "name": "",
          "type": "uint256"
        }
      ],
      "stateMutability": "view",
      "type": "function"
    },
    {
      "inputs": [],
      "name": "PRICE_1stTwo",
      "outputs": [
        {
          "internalType": "uint256",
          "name": "",
          "type": "uint256"
        }
      ],
      "stateMutability": "view",
      "type": "function"
    },
    {
      "inputs": [],
      "name": "PRICE_limited",
      "outputs": [
        {
          "internalType": "uint256",
          "name": "",
          "type": "uint256"
        }
      ],
      "stateMutability": "view",
      "type": "function"
    },
    {
      "inputs": [],
      "name": "PRICE_rare",
      "outputs": [
        {
          "internalType": "uint256",
          "name": "",
          "type": "uint256"
        }
      ],
      "stateMutability": "view",
      "type": "function"
    },
    {
      "inputs": [
        {
          "internalType": "uint8",
          "name": "_element",
          "type": "uint8"
        },
        {
          "internalType": "uint8",
          "name": "_amount",
          "type": "uint8"
        }
      ],
      "name": "buyNFT",
      "outputs": [],
      "stateMutability": "payable",
      "type": "function"
    },
    {
      "inputs": [
        {
          "internalType": "uint256",
          "name": "startingIndex",
          "type": "uint256"
        },
        {
          "internalType": "uint8",
          "name": "_amount",
          "type": "uint8"
        }
      ],
      "name": "getDynamicPrice",
      "outputs": [
        {
          "internalType": "uint256",
          "name": "",
          "type": "uint256"
        }
      ],
      "stateMutability": "pure",
      "type": "function"
    },
    {
      "inputs": [],
      "name": "owner",
      "outputs": [
        {
          "internalType": "address",
          "name": "",
          "type": "address"
        }
      ],
      "stateMutability": "view",
      "type": "function"
    },
    {
      "inputs": [],
      "name": "renounceOwnership",
      "outputs": [],
      "stateMutability": "nonpayable",
      "type": "function"
    },
    {
      "inputs": [],
      "name": "returnActualmint",
      "outputs": [
        {
          "internalType": "uint16",
          "name": "",
          "type": "uint16"
        }
      ],
      "stateMutability": "view",
      "type": "function"
    },
    {
      "inputs": [
        {
          "internalType": "bool",
          "name": "_isOpen",
          "type": "bool"
        }
      ],
      "name": "setIsOpen",
      "outputs": [],
      "stateMutability": "nonpayable",
      "type": "function"
    },
    {
      "inputs": [
        {
          "internalType": "uint16",
          "name": "_newLimit",
          "type": "uint16"
        }
      ],
      "name": "setNewlimitPhase",
      "outputs": [],
      "stateMutability": "nonpayable",
      "type": "function"
    },
    {
      "inputs": [
        {
          "internalType": "address",
          "name": "newOwner",
          "type": "address"
        }
      ],
      "name": "transferOwnership",
      "outputs": [],
      "stateMutability": "nonpayable",
      "type": "function"
    },
    {
      "inputs": [],
      "name": "withdrawBalance",
      "outputs": [],
      "stateMutability": "payable",
      "type": "function"
    }
  ],
  "bytecode": "0x60a060408190526000805466ffffffffffffff60a01b191665103e8000007d60a41b179055600560805261107c388190039081908339810160408190526100459161011c565b826001600160a01b03811661007457604051631e4fbdf760e01b81526000600482015260240160405180910390fd5b61007d816100b0565b50600280546001600160a01b039384166001600160a01b031991821617909155600180549290931691161790555061015f565b600080546001600160a01b038381166001600160a01b0319831681178455604051919092169283917f8be0079c531659141344cd1fd0a4f28419497f9722a3daafe3b4186f6b6457e09190a35050565b80516001600160a01b038116811461011757600080fd5b919050565b60008060006060848603121561013157600080fd5b61013a84610100565b925061014860208501610100565b915061015660408501610100565b90509250925092565b608051610efb6101816000396000818161059301526107250152610efb6000f3fe6080604052600436106100e85760003560e01c8063644803351161008a5780638da5cb5b116100595780638da5cb5b14610249578063b8544add1461027e578063e28d1e3514610299578063f2fde38b146102b457600080fd5b806364480335146101e657806364efa4ce146101f9578063715018a61461021457806375f151a21461022957600080fd5b80633c9f50da116100c65780633c9f50da1461018357806344fdc456146101a35780634e431608146101c35780635fd8c710146101de57600080fd5b8063085a10cf146100ed5780632599fabc1461010f57806332cb6b0c1461013d575b600080fd5b3480156100f957600080fd5b5061010d610108366004610baf565b6102d4565b005b34801561011b57600080fd5b5061012a662386f26fc1000081565b6040519081526020015b60405180910390f35b34801561014957600080fd5b506000546101709074010000000000000000000000000000000000000000900461ffff1681565b60405161ffff9091168152602001610134565b34801561018f57600080fd5b5061012a61019e366004610bee565b61032c565b3480156101af57600080fd5b5061010d6101be366004610c1a565b6103e6565b3480156101cf57600080fd5b5061012a66354a6ba7a1800081565b61010d61042a565b61010d6101f4366004610c3e565b61051a565b34801561020557600080fd5b5061012a66470de4df82000081565b34801561022057600080fd5b5061010d6108b9565b34801561023557600080fd5b50600054600160b01b900461ffff16610170565b34801561025557600080fd5b5060005460405173ffffffffffffffffffffffffffffffffffffffff9091168152602001610134565b34801561028a57600080fd5b5061012a666a94d74f43000081565b3480156102a557600080fd5b5061012a6618de76816d800081565b3480156102c057600080fd5b5061010d6102cf366004610c68565b6108cd565b6102dc610931565b600080549115157a010000000000000000000000000000000000000000000000000000027fffffffffff00ffffffffffffffffffffffffffffffffffffffffffffffffffff909216919091179055565b60008083815b8460ff168160ff1610156103da5760148210156103615761035a6618de76816d800084610ccd565b92506103c5565b606482101561037b5761035a662386f26fc1000084610ccd565b6103e88210156103965761035a66354a6ba7a1800084610ccd565b6105dc8210156103b15761035a66470de4df82000084610ccd565b6103c2666a94d74f43000084610ccd565b92505b816103cf81610ce0565b925050600101610332565b50909150505b92915050565b6103ee610931565b6000805461ffff909216600160c01b027fffffffffffff0000ffffffffffffffffffffffffffffffffffffffffffffffff909216919091179055565b610432610931565b600154604051479160009173ffffffffffffffffffffffffffffffffffffffff9091169083908381818185875af1925050503d8060008114610490576040519150601f19603f3d011682016040523d82523d6000602084013e610495565b606091505b50509050806104eb5760405162461bcd60e51b815260206004820152601b60248201527f5769746864726177207472616e73616374696f6e206661696c6564000000000060448201526064015b60405180910390fd5b60405182907f5f5cb80d5302aa1a394a4eaaf93ab1082109e671bee9d6889f9d6f60decb68cd90600090a25050565b6000547a010000000000000000000000000000000000000000000000000000900460ff1661058a5760405162461bcd60e51b815260206004820152601c60248201527f546869732073656c6c696e6720706861736520697320436c6f7365640000000060448201526064016104e2565b6000546105c6907f000000000000000000000000000000000000000000000000000000000000000060ff1690600160c01b900461ffff16610d18565b60005461ffff918216916105e79160ff851691600160b01b90910416610d18565b61ffff1611156106395760405162461bcd60e51b815260206004820152601c60248201527f457863656564656420616c6c6f776564207068617365206c696d69740000000060448201526064016104e2565b60005461ffff7401000000000000000000000000000000000000000082048116916106709160ff851691600160b01b900416610d18565b61ffff1611156106c25760405162461bcd60e51b815260206004820152600f60248201527f4e46542073616c6520656e64696e67000000000000000000000000000000000060448201526064016104e2565b3233146107115760405162461bcd60e51b815260206004820152601660248201527f4f6e6c7920454f412063616e206d696e74204e4654730000000000000000000060448201526064016104e2565b3360009081526003602052604090205460ff7f000000000000000000000000000000000000000000000000000000000000000081169161075391849116610d32565b60ff1611156107ca5760405162461bcd60e51b815260206004820152602c60248201527f596f752063616e2774206d696e74206d6f7265207468616e206d61784d696e7460448201527f65725855736572204e465473000000000000000000000000000000000000000060648201526084016104e2565b600080546107e390600160b01b900461ffff168361032c565b90508034146108345760405162461bcd60e51b815260206004820152601d60248201527f496e73756666696369656e742045746820666f7220746869732062757900000060448201526064016104e2565b336000908152600360205260408120805484929061085690849060ff16610d32565b92506101000a81548160ff021916908360ff16021790555061087c33848460ff16610984565b60405160ff8316815233907f52277f0b4a9b555c5aa96900a13546f972bda413737ec164aac947c87eec60249060200160405180910390a2505050565b6108c1610931565b6108cb6000610b3a565b565b6108d5610931565b73ffffffffffffffffffffffffffffffffffffffff8116610925576040517f1e4fbdf7000000000000000000000000000000000000000000000000000000008152600060048201526024016104e2565b61092e81610b3a565b50565b60005473ffffffffffffffffffffffffffffffffffffffff1633146108cb576040517f118cdaa70000000000000000000000000000000000000000000000000000000081523360048201526024016104e2565b60005b81811015610aee576000546060906014600160b01b90910461ffff1610156109c957604051806080016040528060428152602001610e42604291399050610a1c565b6000546064600160b01b90910461ffff161015610a0057604051806080016040528060428152602001610e84604291399050610a1c565b604051806080016040528060428152602001610e006042913990505b60008054600160b01b900461ffff16906016610a3783610d4b565b825461ffff9182166101009390930a9283029190920219909116179055506002546040517fe431cc1f00000000000000000000000000000000000000000000000000000000815273ffffffffffffffffffffffffffffffffffffffff9091169063e431cc1f90610aaf90889085908990600401610d6c565b600060405180830381600087803b158015610ac957600080fd5b505af1158015610add573d6000803e3d6000fd5b505060019093019250610987915050565b5060005461ffff600160c01b82048116600160b01b9092041610610b3557600080547fffffffffff00ffffffffffffffffffffffffffffffffffffffffffffffffffff1690555b505050565b6000805473ffffffffffffffffffffffffffffffffffffffff8381167fffffffffffffffffffffffff0000000000000000000000000000000000000000831681178455604051919092169283917f8be0079c531659141344cd1fd0a4f28419497f9722a3daafe3b4186f6b6457e09190a35050565b600060208284031215610bc157600080fd5b81358015158114610bd157600080fd5b9392505050565b803560ff81168114610be957600080fd5b919050565b60008060408385031215610c0157600080fd5b82359150610c1160208401610bd8565b90509250929050565b600060208284031215610c2c57600080fd5b813561ffff81168114610bd157600080fd5b60008060408385031215610c5157600080fd5b610c5a83610bd8565b9150610c1160208401610bd8565b600060208284031215610c7a57600080fd5b813573ffffffffffffffffffffffffffffffffffffffff81168114610bd157600080fd5b7f4e487b7100000000000000000000000000000000000000000000000000000000600052601160045260246000fd5b808201808211156103e0576103e0610c9e565b60007fffffffffffffffffffffffffffffffffffffffffffffffffffffffffffffffff8203610d1157610d11610c9e565b5060010190565b61ffff81811683821601908111156103e0576103e0610c9e565b60ff81811683821601908111156103e0576103e0610c9e565b600061ffff821661ffff8103610d6357610d63610c9e565b60010192915050565b73ffffffffffffffffffffffffffffffffffffffff84168152606060208201526000835180606084015260005b81811015610db65760208187018101516080868401015201610d99565b5060006080828501015260807fffffffffffffffffffffffffffffffffffffffffffffffffffffffffffffffe0601f83011684010191505060ff8316604083015294935050505056fe697066733a2f2f6261666b7265696668337435697466686472646c66757433626d7a7837736d756b746736753762793579616b69786f77346373376a687936743761697066733a2f2f6261666b7265696279646479726f656e797333776c66746b3332356e73336836736265757534716a3661773569736d6c33626a6579726c336e6761697066733a2f2f6261666b72656967736177687a746469616973356832696577617737787661676f766e756570697533756a6e6b746e626b73793534347375757034a264697066735822122023cb55b16837b24ae905541704239e4d909a63e3872a541b67bb5540388f18ed64736f6c634300081c0033",
  "linkReferences": {},
  "deployedLinkReferences": {}
}